:020000041000EA
:1010000020050020191000100000000099100010A9
:1010100000040100000000801149124A124B00F048
:1010200018F8124880471249124A134B00F011F881
:101030001249134A134B00F00CF81349134A0020CD
:10104000521A02DD043A8850FCDC114880471148EE
:1010500080479B1A03DD043BC858D050FBDC704727
:10106000C84000100C0000201C0100209D10001042
:10107000D8410010200500208C05002044420010BB
:101080008C0500208C0500208C05002044090020E0
:101090003D350010AD2F0010FEE7000080B500AF19
:1010A00000F004F800F01CF8BD4680BD80B500AF2C
:1010B0000A490A4B1B899BB28022520113439BB2FF
:1010C0000B810649054A4823D35A9BB2802212015C
:1010D00013439AB24823CA52BD4680BD0000054062
:1010E00080B500AF094BC0225A62094B094A1A6009
:1010F000C046074B1A688023DB051340F9D1034B28
:10110000C3225A6200F008F8BD4680BD00000140CD
:10111000000301400001F13F80B500AF124B1A6897
:10112000FF231B0213401A0A104B1A600E4B1B6858
:10113000FF221A400E4B1A600C4B1B68002B0ED07E
:101140000A4B1B681A020A4B1B68D3180948191C62
:1011500002F05CF9031C5A00074B1A6002E0064BD0
:10116000064A1A60BD4680BD000301408C05002080
:1011700090050020000024F4FC3F00200048E80116
:1011800080B584B000AF7860144B1B68002B02D18F
:10119000124B134A1A60114B1B68FB607B680333C8
:1011A000032293437B600D4B1A687B68D2180D4B6A
:1011B0009A4207D2094B1A687B68D218074B1A600B
:1011C000FB6806E002F0B4F9031C0C221A6001234C
:1011D0005B42181CBD4604B080BDC046940500208B
:1011E00048090020FC3F002080B500AFBD4680BD0F
:1011F00080B500AF01F0D2FC01F0E6FD032001F064
:1012000079FE01F083FB01F04DFC01200221012257
:1012100000F0F6F901200321012200F0F1F900208D
:101220000421012200F0ECF900200021012200F04D
:10123000E7F902200321002200F0E2F90220022156
:10124000002200F0DDF902200121002200F0D8F98F
:1012500000200121012200F0D3F900200221012207
:1012600000F0CEF9012005210022022300F088FBC6
:10127000012004210022022300F082FB00200A2129
:10128000002200F0BDF900200B21002200F0B8F987
:1012900000200721012200F0B3F9002009210122DA
:1012A00000F0AEF901F044FA01F0D2FA01F070FA60
:1012B00001F0D8FA0020002100F068F80020002199
:1012C00000F064F900200021002201F039F900202B
:1012D0000421002201F034F9BD4680BD80B582B002
:1012E00000AF78607B68002B05D000200021012230
:1012F00001F026F904E000200021002201F020F98D
:10130000BD4602B080BDC04680B582B000AF7860F7
:101310007B68002B05D000200421002201F010F989
:1013200004E000200421012201F00AF9BD4602B0C8
:1013300080BDC04680B582B000AF78607B68002B6E
:1013400005D001200221002201F0FAF804E001207A
:101350000221012201F0F4F8BD4602B080BDC04672
:1013600080B582B000AF78607B68002B05D001208B
:101370000321002201F0E4F804E00120032101220E
:1013800001F0DEF8BD4602B080BDC04680B582B037
:1013900000AF786039603B68002B05D00020092140
:1013A000012201F0CDF804E000200721002201F025
:1013B000C7F87B689BB2044AD31A9BB2181C01F091
:1013C0002FFABD4602B080BD50C3FFFF80B582B08A
:1013D00000AF0220032101F091F8031C7B6005207F
:1013E00001F072FA0220032101F088F8031C3B602F
:1013F0000AE03B687B60052001F066FA02200321C9
:1014000001F07CF8031C3B607A683B689A42F0D19B
:101410007B68002B01D1012300E00023181CBD468E
:1014200002B080BD80B582B000AF0220022101F081
:1014300065F8031C7B60052001F046FA02200221BA
:1014400001F05CF8031C3B600AE03B687B60052010
:1014500001F03AFA0220022101F050F8031C3B602F
:101460007A683B689A42F0D17B68002B01D1012356
:1014700000E00023181CBD4602B080BD80B582B0DC
:1014800000AF0220012101F039F8031C7B60052028
:1014900001F01AFA0220012101F030F8031C3B6030
:1014A0000AE03B687B60052001F00EFA0220012172
:1014B00001F024F8031C3B607A683B689A42F0D143
:1014C0007B68002B01D1012300E00023181CBD46DE
:1014D00002B080BD80B582B000AF78607B68002B21
:1014E00005D000200121012201F02AF804E00020AB
:1014F0000121002201F024F8BD4602B080BDC046A3
:1015000080B582B000AF78607B68002B05D00020EA
:101510000221012201F014F804E00020022100223F
:1015200001F00EF8BD4602B080BDC04680B500AFE8
:101530000120052100F0E2FF031C5A425341DBB2B7
:10154000181CBD4680BDC04680B500AF01200421F7
:1015500000F0D4FF031C5A425341DBB2181CBD46B5
:1015600080BDC04680B500AF00200A2100F0C6FF54
:10157000031C181CBD4680BD80B500AF00200B21A8
:1015800000F0BCFF031C181CBD4680BD80B582B0B6
:1015900000AF786039603B68002B05D00020072140
:1015A000012200F0CDFF04E000200721002200F01E
:1015B000C7FF7B689BB2044AD31A9BB2181C01F088
:1015C00017F9BD4602B080BD50C3FFFF80B582B0A1
:1015D00000AF021CFB1D1A70FB1D1B787F2B09D866
:1015E000064BFA1D1278111C1F220A40012191405E
:1015F0000A1C1A60BD4602B080BDC04600E100E092
:1016000090B583B000AF041C081C111CFB1D221CEC
:101610001A70BB1D021C1A707B1D0A1C1A70FB1D60
:101620001B78012B00D1A1E0022B00D1EAE0002BB6
:1016300000D09BE1BB1D1B78032B1DD87B1D1B78A5
:10164000012B0CD1CB4BCB4A1169BA1D1278D200B9
:10165000073201209040021C0A431A610CE0C54B7E
:10166000C44A1269B91D0978C900073101208840B0
:10167000011CC9430A401A61BB1D1B78072B23D8E4
:10168000BB1D1B78032B1FD97B1D1B78012B0DD194
:10169000B84BB84A5169BA1D1278043AD2000732E1
:1016A00001209040021C0A435A610DE0B14BB14A3F
:1016B0005269B91D09780439C900073101208840F1
:1016C000011CC9430A405A61BB1D1B780B2B23D850
:1016D000BB1D1B78072B1FD97B1D1B78012B0DD140
:1016E000A44BA44A9169BA1D1278083AD200073275
:1016F00001209040021C0A439A610DE09D4B9D4AD7
:101700009269B91D09780839C9000731012088405C
:10171000011CC9430A409A61BB1D1B780F2B24D8BA
:10172000BB1D1B780B2B20D97B1D1B78012B0DD1EA
:10173000904B904AD169BA1D12780C3AD200073208
:1017400001209040021C0A43DA610EE0894B894A6D
:10175000D269B91D09780C39C900073101208840C8
:10176000011CC9430A40DA6100E1FFE0BB1D1B78A0
:10177000032B1DD87B1D1B78012B0CD17E4B7E4A81
:101780001169BA1D1278D200073201209040021C64
:101790000A431A610CE0784B774A1269B91D09783F
:1017A000C900073101208840011CC9430A401A6161
:1017B000BB1D1B78072B24D8BB1D1B78032B20D9FE
:1017C0007B1D1B78012B0DD16B4B6B4A5169BA1DE8
:1017D0001278043AD200073201209040021C0A43DA
:1017E0005A610EE0644B644A5269B91D09780439A4
:1017F000C900073101208840011CC9430A405A61D1
:10180000B4E0B3E0BB1D1B78012B28D85B4B5B4ACF
:10181000126EB91D097801208840011CC9430A4095
:101820001A667B1D1B78012B0CD1544B534A11694E
:10183000BA1D1278D200073201209040021C0A43E0
:101840001A610CE04D4B4D4A1269B91D0978C90067
:10185000073101208840011CC9430A401A61BB1DA1
:101860001B78012B1BD9BB1D1B78032B17D8434BAF
:10187000424A126EB91D097801208840011CC943F3
:101880000A401A663D4B3D4A1269B91D0978C900E4
:10189000073101208840011CC9430A401A61BB1D61
:1018A0001B78072B1CD8BB1D1B78032B18D9334B77
:1018B000324A126EB91D097801208840011CC943C3
:1018C0000A401A662D4B2D4A5269B91D0978043910
:1018D000C900073101208840011CC9430A405A61F0
:1018E000BB1D1B78092B11D8BB1D1B78072B0DD9ED
:1018F000224B224A9269B91D09780839C90007317B
:1019000001208840011CC9430A409A61BB1D1B7815
:10191000092B2AD9194B194A126EB91D09780120D1
:101920008840011CC9430A401A667B1D1B78012BA5
:101930000DD1124B114A9169BA1D1278083AD200A2
:10194000073201209040021C0A439A610DE00B4BC4
:101950000A4A9269B91D09780839C900073101207E
:101960008840011CC9430A409A61C046BD4603B085
:1019700090BDC04600000440000104400002044045
:10198000B0B582B000AF051C0C1C101C191CFB1D4F
:101990002A1C1A70BB1D221C1A707B1D021C1A7097
:1019A0003B1D0A1C1A70FB1D1B78012B00D1CFE1D7
:1019B000022B00D1ABE2002B01D000F098FDBB1D43
:1019C0001B78032B65D87B1D1B78012B19D1DF4BAE
:1019D000DE4A1169BA1D1278D20007320120904008
:1019E000021C0A431A61D94BD84A1269B91D0978F9
:1019F000C90003310F208840011CC9430A401A6105
:101A000047E0D24BD14A1269B91D0978C9000731A4
:101A100001208840011CC9430A401A613B1D1B7804
:101A2000012B19D1C94BC94A1269B91D0978C900DE
:101A300003311F208840011CC9430A401A61C34B6F
:101A4000C24A1169BA1D1278D200043201209040B6
:101A5000021C0A431A611CE03B1D1B78022B18D1A3
:101A6000BA4BBA4A1269B91D0978C90003311F205F
:101A70008840011CC9430A401A61B44BB34A11693A
:101A8000BA1D1278D200033201209040021C0A4392
:101A90001A61BB1D1B78072B6ED8BB1D1B78032B4F
:101AA0006AD97B1D1B78012B1BD1A84BA74A516912
:101AB000BA1D1278043AD200073201209040021C6D
:101AC0000A435A61A14BA14A5269B91D09780439E8
:101AD000C90003310F208840011CC9430A405A61E4
:101AE0004AE09A4B994A5269B91D09780439C900EC
:101AF000073101208840011CC9430A405A613B1D3F
:101B00001B78012B1BD1914B904A5269B91D097862
:101B10000439C90003311F208840011CC9430A4011
:101B20005A618A4B894A5169BA1D1278043AD20027
:101B3000043201209040021C0A435A611CE03B1D04
:101B40001B78022B18D1814B804A5269B91D097844
:101B5000C90003311F208840011CC9430A405A6153
:101B60007A4B7A4A5169BA1D1278D20003320120A9
:101B70009040021C0A435A61BB1D1B780B2B6ED888
:101B8000BB1D1B78072B6AD97B1D1B78012B1BD132
:101B90006E4B6E4A9169BA1D1278083AD20007322C
:101BA00001209040021C0A439A61684B674A92697F
:101BB000B91D09780839C90003310F208840011C7C
:101BC000C9430A409A614AE0604B604A9269B91D74
:101BD00009780839C900073101208840011CC94330
:101BE0000A409A613B1D1B78012B1BD1574B574A6A
:101BF0009269B91D09780839C90003311F2088404E
:101C0000011CC9430A409A61504B504A9169BA1D60
:101C10001278083AD200043201209040021C0A4394
:101C20009A611CE03B1D1B78022B18D1474B474A99
:101C30009269B91D0978C90003311F208840011C31
:101C4000C9430A409A61414B404A9169BA1D1278D2
:101C5000D200033201209040021C0A439A61BB1D4E
:101C60001B780F2B70D8BB1D1B780B2B6CD97B1DE1
:101C70001B78012B1BD1354B344AD169BA1D127820
:101C80000C3AD200073201209040021C0A43DA616C
:101C90002E4B2E4AD269B91D09780C39C90003317F
:101CA0000F208840011CC9430A40DA614CE0274BF1
:101CB000264AD269B91D09780C39C90007310120BB
:101CC0008840011CC9430A40DA613B1D1B78012B87
:101CD0001BD11E4B1D4AD269B91D09780C39C900A8
:101CE00003311F208840011CC9430A40DA61174BA9
:101CF000164AD169BA1D12780C3AD200043201207A
:101D00009040021C0A43DA611EE03B1D1B78022B47
:101D10001AD10E4B0D4AD269B91D0978C900033199
:101D20001F208840011CC9430A40DA61074B074A5B
:101D3000D169BA1D1278D200033201209040021CF2
:101D40000A43DA6100F0D3FB00F0D1FB000004404D
:101D5000BB1D1B78032B65D87B1D1B78012B19D16C
:101D6000D84BD84A1169BA1D1278D2000732012027
:101D70009040021C0A431A61D24BD24A1269B91D23
:101D80000978C90003310F208840011CC9430A406B
:101D90001A6147E0CB4BCB4A1269B91D0978C900DB
:101DA000073101208840011CC9430A401A613B1DCC
:101DB0001B78012B19D1C34BC24A1269B91D09788E
:101DC000C90003311F208840011CC9430A401A6121
:101DD000BC4BBC4A1169BA1D1278D20004320120F2
:101DE0009040021C0A431A611CE03B1D1B78022B29
:101DF00018D1B44BB34A1269B91D0978C90003312F
:101E00001F208840011CC9430A401A61AD4BAD4AEE
:101E10001169BA1D1278D200033201209040021CD1
:101E20000A431A61BB1D1B78072B6FD8BB1D1B789B
:101E3000032B6BD97B1D1B78012B1BD1A14BA14A16
:101E40005169BA1D1278043AD2000732012090403D
:101E5000021C0A435A619B4B9A4A5269B91D097880
:101E60000439C90003310F208840011CC9430A40CE
:101E70005A614BE0934B934A5269B91D0978043972
:101E8000C900073101208840011CC9430A405A613A
:101E90003B1D1B78012B1BD18A4B8A4A5269B91D05
:101EA00009780439C90003311F208840011CC94347
:101EB0000A405A61834B834A5169BA1D1278043A29
:101EC000D200043201209040021C0A435A611DE0F6
:101ED0003B1D1B78022B19D17A4B7A4A5269B91DE6
:101EE0000978C90003311F208840011CC9430A40FA
:101EF0005A61744B734A5169BA1D1278D200033289
:101F000001209040021C0A435A61F0E2EFE2BB1D3F
:101F10001B78002B4CD17B1D1B78012B12D16A4BF7
:101F2000694A126E01218A431A66674B664A126932
:101F3000FF218A431A61644B634A126980210A4374
:101F40001A6135E07B1D1B78002B31D15E4B5E4A58
:101F5000126E01218A431A663B1D1B78012B0CD19E
:101F6000594B594A1269FF218A431A61564B564A06
:101F7000126910210A431A611AE03B1D1B78022BDB
:101F80000CD1514B504A1269FF218A431A614E4BC2
:101F90004D4A126908210A431A6109E03B1D1B786A
:101FA000032B05D1484B484A126E01210A431A6699
:101FB000BB1D1B78012B4FD17B1D1B78012B13D12F
:101FC000414B414A126E02218A431A663E4B3E4AF9
:101FD00012693E490A401A613B4B3B4A1269802113
:101FE00009020A431A6137E07B1D1B78002B33D1AD
:101FF000354B354A126E02218A431A663B1D1B7807
:10200000012B0DD1304B304A126930490A401A6118
:102010002D4B2D4A1269802149010A431A611BE0A8
:102020003B1D1B78022B0DD1274B274A12692749EC
:102030000A401A61244B244A1269802109010A438B
:102040001A6109E03B1D1B78032B05D11E4B1E4A6C
:10205000126E02210A431A66BB1D1B78022B43D164
:102060007B1D1B78012B3FD07B1D1B78002B3BD1A8
:10207000154B154A126E04218A431A663B1D1B78C4
:10208000012B0DD1104B104A126911490A401A61F7
:102090000D4B0D4A1269802149030A431A6123E05E
:1020A0003B1D1B78022B15D1074B074A12690849C3
:1020B0000A401A61044B044A1269802109030A4349
:1020C0001A6111E00001044000020440FF00FFFF1C
:1020D000FFFF00FF3B1D1B78032B05D1CD4BCD4AE5
:1020E000126E04210A431A66BB1D1B78032B3BD1D9
:1020F0007B1D1B78012B37D07B1D1B78002B33D128
:10210000C44BC44A126E08218A431A663B1D1B78D1
:10211000012B0DD1BF4BBF4A12691202120A1A617C
:10212000BC4BBC4A1269802149050A431A611BE075
:102130003B1D1B78022B0DD1B64BB64A1269120219
:10214000120A1A61B34BB34A1269802109050A4386
:102150001A6109E03B1D1B78032B05D1AD4BAD4A3D
:10216000126E08210A431A66BB1D1B78032B60D927
:10217000BB1D1B78072B5CD87B1D1B78012B58D00F
:102180007B1D1B78002B54D1A24BA24A126EB91DA5
:10219000097801208840011CC9430A401A663B1D8A
:1021A0001B78012B19D19B4B9A4A5269B91D0978AA
:1021B0000439C900FF208840011CC9430A405A6104
:1021C000944B944A5269B91D09780439C90010200A
:1021D0008840011C0A435A612BE03B1D1B78022BEF
:1021E00019D18C4B8B4A5269B91D09780439C90041
:1021F000FF208840011CC9430A405A61854B854A2B
:102200005269B91D09780439C90008208840011CA9
:102210000A435A610DE03B1D1B78032B09D17D4B0E
:102220007C4A116EBA1D127801209040021C0A43AC
:102230001A66BB1D1B78082B4DD17B1D1B78012B0B
:1022400012D1744B734A126E73490A401A66714B6D
:10225000704A9269FF218A439A616E4B6D4A926976
:1022600080210A439A6136E07B1D1B78002B32D116
:10227000684B684A126E68490A401A663B1D1B7813
:10228000012B0CD1634B634A9269FF218A439A6107
:10229000604B604A926910210A439A611BE03B1D22
:1022A0001B78022B0CD15B4B5A4A9269FF218A435F
:1022B0009A61584B574A926908210A439A610AE089
:1022C0003B1D1B78032B06D1524B524A126E8021C4
:1022D00049000A431A66BB1D1B78092B50D17B1D90
:1022E0001B78012B13D14B4B4A4A126E4B490A40C3
:1022F0001A66484B474A926949490A409A61454BD8
:10230000444A9269802109020A439A6138E07B1DA0
:102310001B78002B34D13F4B3E4A126E3F490A4096
:102320001A663B1D1B78012B0DD13A4B394A926935
:102330003B490A409A61374B364A926980214901EC
:102340000A439A611CE03B1D1B78022B0DD1314BD7
:10235000304A926932490A409A612E4B2D4A92695D
:10236000802109010A439A610AE03B1D1B78032B77
:1023700006D1284B274A126E802189000A431A662B
:10238000BB1D1B780A2B5CD17B1D1B78012B13D145
:10239000204B204A126E23490A401A661D4B1D4AE3
:1023A000926921490A409A611A4B1A4A926980211E
:1023B00009040A439A6144E07B1D1B78002B40D13D
:1023C000144B144A126E17490A401A663B1D1B78BB
:1023D000012B0DD10F4B0F4A926913490A409A61A4
:1023E0000C4B0C4A9269802149030A439A6128E008
:1023F0003B1D1B78022B19D1064B064A92690A49EC
:102400000A409A61034B034A9269802109030A43F7
:102410009A6116E000020440FFFEFFFFFFFDFFFF90
:10242000FF00FFFFFFFBFFFFFFFF00FF3B1D1B78CF
:10243000032B06D12F4B2F4A126E8021C9000A436D
:102440001A66BB1D1B780B2B50D17B1D1B78012BF3
:1024500013D1284B274A126E27490A401A66254B8A
:10246000244A92691202120A9A61224B214A926905
:10247000802109060A439A6138E07B1D1B78002BF6
:1024800034D11C4B1B4A126E1B490A401A663B1D75
:102490001B78012B0DD1174B164A92691202120AB2
:1024A0009A61144B134A9269802149050A439A6143
:1024B0001CE03B1D1B78022B0DD10E4B0D4A92697F
:1024C0001202120A9A610B4B0A4A9269802109058D
:1024D0000A439A610AE03B1D1B78032B06D1054B8A
:1024E000044A126E802109010A431A66C046BD469D
:1024F00002B0B0BD00020440FFF7FFFF90B585B009
:1025000000AF021CFB1D1A70BB1D0A1C1A700E23A3
:10251000FC18FB1D1B78181C00F0A0F8031C23807E
:102520000E23FB181A88BB1D1B781A41131CDBB243
:1025300001221340DBB2181CBD4605B090BDC04659
:1025400090B583B000AF041C081C111CFB1D221C9D
:102550001A70BB1D021C1A707B1D0A1C1A707B1D91
:102560007A1D127801210A401A70FB1D1B78012B7D
:1025700035D0022B4ED0002B67D17B1D1B78012B51
:1025800016D1334B324A5268B91D097810310120F7
:102590008840011CC9430A405A602D4B2C4A51689F
:1025A000BA1D127801209040021C0A435A604CE088
:1025B000274B274A5268B91D097801208840011C21
:1025C000C9430A405A60224B214A5168BA1D127809
:1025D000103201209040021C0A435A6035E07B1DF6
:1025E0001B78012B0AD11B4B1A4A1168BA1D1278AD
:1025F00001209040021C0A431A6026E0154B154A40
:102600001268B91D097801208840011CC9430A409D
:102610001A601AE07B1D1B78012B0AD10E4B0E4A63
:102620001168BA1D127801209040021C0A431A60FA
:102630000AE0094B084A1268B91D09780120884050
:10264000011CC9430A401A60C046BD4603B090BD94
:1026500000000440000104400002044080B584B042
:1026600000AF021CFB1D1A70FB1D1B78012B0CD048
:10267000022B13D0002B1AD10F4B5A6A0E23FB18D2
:102680001A800E23FB181B8812E00C4B5A6A0E238B
:10269000FB181A800E23FB181B8809E0084B5A6AA6
:1026A0000E23FB181A800E23FB181B8800E0002362
:1026B000181CBD4604B080BD000004400001044069
:1026C0000002044080B500AF154BC0225A62154B82
:1026D000154A1A60C046134B1A688023DB05134065
:1026E000F9D10F4BC3225A620D4BC0225A620D4BD7
:1026F0000C4A126904210A431A61C046094B1A6840
:102700008023DB051340F9D1054BC3225A62054BE8
:10271000044AD26805490A43DA60BD4680BDC04616
:1027200000000140000301400001F13FFF0F0000E5
:1027300080B500AFFFF7C6FF0F4B01221A630F4BA6
:102740001022FF32DA600E4B04225A610C4B012238
:102750005A620B4B0B4A5A63094B0B4ADA63074B1D
:1027600001221A61094B094A5269A02109040A434E
:102770005A61BD4680BDC0460000014000000448CB
:102780000001044850C30000A8610000000004409C
:1027900080B500AFFFF796FF0F4B01221A630F4B76
:1027A0001022FF32DA600E4B04225A610C4B0122D8
:1027B0005A620B4B0B4A5A63094B0B4ADA63074BBD
:1027C000802252001A61094B084A9269A0210A43EB
:1027D0009A61BD4680BDC04600000140000004482B
:1027E0000003044850C30000A8610000000004403A
:1027F00080B582B000AF021CBB1D1A80064BBA1D0B
:102800001288DA63054B054A126901210A431A61ED
:10281000BD4602B080BDC046000104480000044827
:1028200080B582B000AF021CBB1D1A80064BBA1DDA
:102830001288DA63054B054A1269802149000A4370
:102840001A61BD4602B080BD000304480000044880
:1028500080B500AF024B0122DA60BD4680BDC046A4
:102860000001044880B500AF024B0122DA60BD468A
:1028700080BDC0460003044880B584B000AF021C90
:10288000FB1D1A7018E00E23FB186D221A8008E059
:102890000E23FB181B889BB2013B9AB20E23FB1838
:1028A0001A800E23FB181B889BB2002BF0D1FB1D56
:1028B000FA1D1278013A1A70FB1D1B78002BE2D129
:1028C000BD4604B080BDC04680B584B000AF021CD8
:1028D000BB1D1A800E23FB1800221A800BE00A2071
:1028E000FFF7CAFF0E23FB181B889BB201339AB275
:1028F0000E23FB181A800E23FB181B889BB2BA1DEF
:1029000012889A42EBD8BD4604B080BD80B500AFB6
:10291000594BC0225A62594B584A126908210A433E
:102920001A61C046554B1A688023DB051340F9D164
:10293000514BC3225A62524B514AD26803210A4377
:10294000DA604F4B4E4A1269802109020A431A612C
:102950004B4B4B4A126976210A431A61484B484A4D
:102960005269B82149030A435A61454B444A5269A6
:10297000F02189010A435A61414B414A52695A6127
:102980003F4B3F4A526B02210A435A633C4B3C4A3D
:10299000526B3C490A40802149000A435A63384B34
:1029A000374A526B38490A40E021C9020A435A6348
:1029B000334B334A526B35490A40E021C9040A437C
:1029C0005A632F4B2E4A926B31490A408021C9002D
:1029D0000A439A632A4B2A4A926B802149000A4390
:1029E0009A63274B264AD26B01210A43DA63244BB0
:1029F000234AD26B02218A43DA63214B204AD26BED
:102A000024490A40902109010A43DA631C4B1C4AFD
:102A1000926C802189010A439A641949184A8423D7
:102A20005B00D3581C4A1A4084235B00CA50144BE5
:102A3000134A126C02210A431A641149104A842372
:102A40005B00D358154A1340C022D2041A43842392
:102A50005B00CA500A4B0022DA61114B104A12691E
:102A6000B82109040A431A610D4B0D4A126912027A
:102A7000120A1A61BD4680BD0000014000030140FA
:102A800000020048FFFCFFFFFFFFC0FFFFFFFFF059
:102A9000FFF3FFFFFFE0FFFFFFC0FFFFC0FFFFF8F6
:102AA0000001044080B500AF0C4B0C4A126C802131
:102AB000C9010A431A64094B084A926908490A4045
:102AC0009A61064B054AD26C8021C9000A43DA6438
:102AD0000920FEF77BFDBD4680BDC04600020048D0
:102AE000FFF8FFFF80B582B000AF021CFB1D1A701B
:102AF0000849FB1D1A78C0235B00CA50C046054A2E
:102B00008A235B00D25880231B011340F7D0BD46B7
:102B100002B080BD0002004880B582B000AF78608E
:102B200006E07B685A1C7A601B78181CFFF7DAFFF6
:102B30007B681B78002BF4D1BD4602B080BDC04637
:102B400080B582B000AF114B5A6DFB1D1A70FB1D92
:102B50001B780D2B09D10E4B1B781A1C0D4B002135
:102B600099540D4B01221A7006E0094B1B78191C71
:102B7000084BFA1D12785A54054B1B780133DAB210
:102B8000034B1A70C046BD4602B080BD000200482B
:102B900098050020B00600209905002080B500AF00
:102BA0007F4BC0225A627F4B7E4A126908210A433A
:102BB0001A61C0467B4B1A688023DB051340F9D1AC
:102BC000774BC3225A629023DB059022D205D2684C
:102BD00003210A43DA609023DB059022D2051269B3
:102BE000802109020A431A619023DB059022D20555
:102BF000126976210A431A619023DB059022D205DF
:102C00005269B82149030A435A619023DB05902297
:102C1000D2055269F02189010A435A619023DB05EC
:102C20009022D20552695A619023DB059022D20589
:102C3000526B02210A435A639023DB059022D2058E
:102C4000526B59490A40802149000A435A63902334
:102C5000DB059022D205526B54490A40E021C9029B
:102C60000A435A639023DB059022D205526B5049E8
:102C70000A40E021C9040A435A639023DB059022ED
:102C8000D205926B4B490A408021C9000A439A63DE
:102C90009023DB059022D205926B802149000A43E4
:102CA0009A639023DB059022D205D26B01210A435F
:102CB000DA639023DB059022D205D26B02218A438E
:102CC000DA639023DB059022D205D26B3A490A40A1
:102CD000902109010A43DA639023DB059022D20593
:102CE000926C802189010A439A649023DA0590232B
:102CF000D90584235B00CB583049194084235B00FD
:102D0000D1509023DB059022D205126C02210A4398
:102D10001A649023DA059023D90584235B00CB58ED
:102D200027490B40C021C904194384235B00D150BB
:102D3000012001210022FEF763FC9023DB05902295
:102D4000D205D26907218A43DA619023DB059022FC
:102D5000D205D26903210A43DA611A4B194A126972
:102D6000F8218A431A61174B164A1269B8210A439F
:102D70001A6100200C210122FEF742FC00200C21E8
:102D80000122FFF7DDFB00200D210122FEF738FCB8
:102D900000200D210122FFF7D3FBBD4680BDC046B8
:102DA0000000014000030140FFFCFFFFFFFFC0FFE8
:102DB000FFFFFFF0FFF3FFFFFFE0FFFFFFC0FFFF9C
:102DC000C0FFFFF80001044080B500AF9023DB0591
:102DD0009022D205126C8021C9010A431A64902303
:102DE000DB059022D20592690C490A409A61902332
:102DF000DB059022D2059269802149000A439A613D
:102E00009023DB059022D205D26C8021C9000A43B1
:102E1000DA640A20FEF7DAFBBD4680BDFFF8FFFF4B
:102E200080B582B000AF021CFB1D1A709023DA053A
:102E3000FB1D1978C0235B00D150C0469023DA05F2
:102E40008A235B00D25880231B011340F6D0BD4675
:102E500002B080BD80B582B000AF786006E07B68CC
:102E60005A1C7A601B78181CFFF7DAFF7B681B7806
:102E7000002BF4D1BD4602B080BDC04680B582B003
:102E800000AF9023DB055A6DFB1D1A70FB1D1B78EC
:102E90000D2B09D10D4B1B781A1C0D4B0021995499
:102EA0000C4B01221A7006E0084B1B78191C084BCA
:102EB000FA1D12785A54054B1B780133DAB2034BD2
:102EC0001A70C046BD4602B080BDC0469A050020BB
:102ED000B00500209B05002080B500AF034B002209
:102EE0001A70034B00221A70BD4680BDB005002049
:102EF0009A05002080B582B000AF021CFB1D1A703D
:102F0000C0469023DA058A235B00D25880231B0138
:102F10001340F6D0FB1D1B78012B13D002DC002BD5
:102F200005D030E0022B18D0032B21D02BE000205D
:102F30000C210122FFF704FB00200D210122FFF7E5
:102F4000FFFA20E000200C210022FFF7F9FA002010
:102F50000D210122FFF7F4FA15E000200C210122D7
:102F6000FFF7EEFA00200D210022FFF7E9FA0AE050
:102F700000200C210022FFF7E3FA00200D2100229F
:102F8000FFF7DEFAC046BD4602B080BD80B500AF97
:102F9000BFF34F8F034B044ADA60BFF34F8FC04635
:102FA000FDE7C04600ED00E00400FA0580B592B0F0
:102FB00000AFFEF71DF90020FEF7A6F90020002162
:102FC000FEF7E4F900200021FEF7E0FA002000F00F
:102FD0007FF90120FEF782F9FEF724FA031E09D1DA
:102FE0004C4B1B68002B05D100F0AEF84A4B181C67
:102FF000FFF792FDFEF7EAF9031E0DD1474B1B6860
:10300000002B09DD464B1B68002B05D100F00AF9A7
:10301000444B181CFFF780FDFEF704FA031E012B3A
:1030200002D13C4B00221A60FEF7D0F9031E012B9F
:1030300002D13B4B00221A60FEF778FA031E012BE7
:103040000DD1394B181C0121FEF7A0FAC046FEF73E
:1030500089FA031EFBD000200021FEF797FAFEF745
:1030600073FA031E012B07D1C046FEF76DFA031E4B
:10307000012BFAD0FFF78AFF2C4A2D4B101C191C8C
:10308000052200F0A3FA031E3DD12A4B1B78002B2A
:1030900039D0294A4023FB18101C191C0A2200F0C1
:1030A00039FB031C7B643A6C234B9A4222D03B6C65
:1030B0001B780A2B07D03B6C1B780D2B03D03B6C85
:1030C0001B78002B16D17B6C002B13DB7B6C164A14
:1030D00093420FDC194B7A6C1A60391C184A7B6CCE
:1030E000081C111C1A1C00F04FFA3B1C181CFFF79F
:1030F00013FD03E0134B181CFFF70EFD0D4B0022D0
:103100001A70FFF7E9FE0D4B1B68181C0021FEF733
:103110003DF95EE7A0050020FC3E00109C05002064
:10312000A4050020083F001050C30000B005002097
:10313000103F00109B050020B50500202005002051
:10314000183F0010303F001080B500AF2D4B01221A
:103150001A6000200021FEF719F90120FEF7D4F8CB
:103160000020FEF7BBF80120FEF7B4F9264B181C2F
:10317000FFF770FE0CE0FEF7E7F9031E012B07D105
:10318000C046FEF7E1F9031E012BFAD0FFF7FEFE61
:103190001E4B1B78002BEED01C4B00221A701C4BD0
:1031A000181CFFF7B9FC0020FEF794F9184B1B78A8
:1031B0006E2B04D1174B181CFFF7AEFC12E0164B18
:1031C0001B68632B0EDC144B1B68591C124A1160E0
:1031D0000F4A1278643A511E8A41D2B2111C0F4A2A
:1031E0009B009950FFF778FE0120FEF777F800204A
:1031F000FEF78AF80A4B1B68181C0021FEF7C6F878
:10320000BD4680BDA00500206C3F00109B0500203E
:10321000B0050020843F00109C050020B00700206E
:103220002005002080B582B000AF244B01221A6037
:1032300000200021FEF7AAF8214B1B68012B17D1B3
:10324000204B181C0021FEF7A1F9C046FEF794F9A7
:10325000031EFBD01B4B181C0121FEF797F9C0463B
:10326000FEF780F9031EFBD000200021FEF78EF947
:1032700001237B600BE07B685A1E114B7968890043
:10328000C9580F4B9200D1507B6801337B600E4BC5
:103290001B687A689A42EEDB0B4B1B68002B04DD3F
:1032A000094B1B685A1E084B1A60084B1B68181CF8
:1032B0000021FEF76BF8BD4602B080BDA4050020DA
:1032C000B007002050C300009C050020200500200E
:1032D00080B582B000AF78607B68002B10D10020F1
:1032E000FDF7FCFF0020FEF70FF80020FEF722F8A4
:1032F0000020FEF735F800200021FEF747F87FE0B8
:103300000120FDF7EBFF0120FDF7FEFF0120FEF796
:1033100011F80120FEF724F83B4B181CFFF7D4FAF4
:103320000020FDF7F1FF0020FEF704F80020FEF773
:1033300017F8FA23DB00181CFFF7C6FAFEF746F869
:10334000031E03D00120FEF70BF802E00120FDF779
:10335000F1FFFA239B00181CFFF7B6FA0020FDF7D7
:10336000E9FF0020FDF7FCFFFA235B00181CFFF7C4
:10337000ABFAFEF757F8031E03D00120FDF7F0FF6C
:1033800002E00120FDF7D6FFFA239B00181CFFF78F
:103390009BFA0020FDF7CEFF0020FDF7E1FFFA23A6
:1033A0005B00181CFFF790FAFEF768F8031E03D0C5
:1033B0000120FDF7D5FF02E00120FDF7BBFFFA2356
:1033C0009B00181CFFF780FA0020FDF7B3FF0020D8
:1033D000FDF7C6FF0120FEF77DF8FA239B00181CBD
:1033E000FFF772FA0020FEF775F80120FEF788F863
:1033F000FA239B00181CFFF767FA0020FEF780F8FD
:10340000BD4602B080BDC0468813000000224308BC
:103410008B4274D303098B425FD3030A8B4244D39C
:10342000030B8B4228D3030C8B420DD3FF220902DE
:1034300012BA030C8B4202D31212090265D0030B9D
:103440008B4219D300E0090AC30B8B4201D3CB0393
:10345000C01A5241830B8B4201D38B03C01A5241D5
:10346000430B8B4201D34B03C01A5241030B8B42D7
:1034700001D30B03C01A5241C30A8B4201D3CB02C2
:10348000C01A5241830A8B4201D38B02C01A5241A7
:10349000430A8B4201D34B02C01A5241030A8B42AA
:1034A00001D30B02C01A5241CDD2C3098B4201D3C2
:1034B000CB01C01A524183098B4201D38B01C01A40
:1034C000524143098B4201D34B01C01A52410309B7
:1034D0008B4201D30B01C01A5241C3088B4201D366
:1034E000CB00C01A524183088B4201D38B00C01A13
:1034F000524143088B4201D34B00C01A5241411A3A
:1035000000D20146524110467047FFE701B5002046
:1035100000F00CF802BDC0460029F7D003B5FFF754
:1035200075FF0EBC4243891A1847C0467047C04613
:10353000014B18687047C046840500200E4B70B5DB
:1035400000251E1C0D4CE41AA410A54204D0AB00AB
:10355000F35898470135F8E7FDF746FE084B00257C
:103560001E1C084CE41AA410A54204D0AB00F3586A
:1035700098470135F8E770BD8C0500208C050020C8
:103580008C0500208C0500200EB410B59DB002A95A
:10359000029008610B488224886048610120404203
:1035A0001FABC881084804CBA400006801938C813C
:1035B00000F01EF90023029A13701DB010BC08BC65
:1035C00003B01847FFFFFF7F84050020002330B5BC
:1035D0009A420DD0013AC45CCD5CAC4202D1934218
:1035E00002D1251C631B03E00133002CF3D1F8E763
:1035F000181C30BDF0B51E1C444B87B01B680590ED
:1036000002930B1C039101921C78029A5D1C121903
:1036100050780822104001D02B1CF5E72D2C04D146
:103620009D1C5C780123009304E000902B2C01D1B9
:103630005C789D1C002E02D0102E0AD160E0302C48
:103640005CD120222B789343582B52D110266C78D2
:103650000235009F311C7B1E9F412D4BFF18381CEB
:10366000FFF75AFF381C0491311CFFF7CFFE0022F0
:10367000071C131C029909194978480701D5303CE9
:1036800007E00320084017D03721012800D020315F
:10369000641AB44210DA511C0BD0BB4207D802D1D5
:1036A000049A944203DC73430122E31801E00122EF
:1036B00052422C780135DDE7181C511C0BD10098C3
:1036C000059A431E9841124BC01822231360019B98
:1036D000002B0AD117E00099002900D05842019B25
:1036E000002B10D0039B002A00D06B1E019A1360A0
:1036F00009E03024002EACD10826AAE70A26A8E764
:10370000302CA6D19DE707B0F0BDC046880500204B
:10371000FFFFFF7F38B5051C0C1C131C034A291C36
:103720001068221CFFF766FF38BDC04684050020E4
:10373000F0B58E6885B0071C0C1C03920193B34250
:1037400045D390238A89DB001A423DD003250969BD
:10375000236801985B1A029363695D43EB0F5D195F
:10376000029B6D1001331B189D4200D21D1C381C9A
:1037700053050FD5291C00F025FB061E13D0029A15
:10378000216900F0BCFAA289184B13408022134330
:10379000A38111E02A1C00F06DFB061E0CD1381C21
:1037A000216900F0C9FA0C23402201203B60A38963
:1037B00040421343A38117E0029B2661F61826605E
:1037C0006561019EED1AA560019BB34200D2019E86
:1037D000321C2068039900F09BFA0020A3689B1B11
:1037E000A36023689E19266005B0F0BD7FFBFFFF34
:1037F000F0B59FB0029005938B890E1C171C1B0619
:1038000010D50B69002B0DD1402100F0DBFA3060A0
:103810003061002804D10C23029A01381360D0E0F3
:1038200040237361002306AD6B6120336B76103348
:10383000AB763C1C2378002B03D1E31B049312D0FE
:1038400003E0252BF9D00134F4E7049B0298311CE6
:103850003A1CFFF76DFF431C00D1ACE06A69049B82
:10386000944663446B612378002B00D1A3E00122CE
:10387000002352426A6002A95432521801342B606C
:10388000EB60AB601370AB654F4F2178381C05229D
:1038900000F02AFA002808D0C01B01278740381CF6
:1038A0002B68013418432860EEE72B68DA0604D54C
:1038B0005322202102A8121811701A0704D553228E
:1038C0002B2102A81218117022782A2A01D0099BF4
:1038D0000EE0059A111D12680591002A01DB09927C
:1038E00004E05242EA60022213432B60013409E0F3
:1038F0002278303A092A04D80A214B4301349B1814
:10390000F6E7099323782E2B18D163782A2B09D157
:10391000059B02341A1D1B680592002B0DDA01234A
:103920005B420AE0002301342278303A092A04D8A5
:103930000A214B4301349B18F6E70793234F217864
:10394000381C032200F0D0F9002807D0C01B402704
:103950008740381C2B6801341843286021781C48A4
:103960000622671C297600F0BFF9002812D0194BF7
:10397000002B06D10722059B073393430833059399
:1039800014E005AB00930298291C321C124B00E096
:1039900000BF07E005AB00930298291C321C0E4BB8
:1039A00000F08AF80390039B013304D06B69039AFB
:1039B0009B186B613DE7B3890B985B0601D501202D
:1039C00040421FB0F0BDC046934000109940001027
:1039D0009D4000100000000031370010F7B5171CA3
:1039E00001930A698B6800900C1C934200DA131C47
:1039F000221C3B6043321278002A01D001333B6025
:103A000023689B0602D53B6802333B60062523688A
:103A10001D401ED0231C43331B785A1E934122683D
:103A200092061CD53020E1184031C870211C5A1C68
:103A300045310978A21840320233D1700FE0221CC0
:103A40000123009801991932089EB047431C0ED0FB
:103A50000135E3683A689B1A9D42F0DBDAE7221CE5
:103A6000009801994332089DA847431C02D10120C8
:103A7000404220E006232068E1683A6803400025C0
:103A8000042B03D18D1AEB43DB171D40A368226979
:103A9000934201DD9B1AED180027AF420ADA221C7F
:103AA0000123009801991A32089EB047431CDED0CA
:103AB0000137F2E70020FEBDF0B58BB006920A1C7C
:103AC00043320793059004920A7E0C1C109B6E2AC9
:103AD00000D1A8E011D8632A22D009D8002A00D149
:103AE000B2E0582A00D0C2E045310A707C4A4FE06B
:103AF000642A1DD0692A1BD0B9E0732A00D1A7E03F
:103B000009D86F2A29D0702A00D0B0E02022096895
:103B10000A43226037E0752A1FD0782A33D0A6E006
:103B20000D1C1A684235111D196013682B70A1E035
:103B300021681A68080603D5111D1960166805E08A
:103B40004906F9D5111D19600023D65E002E3BDA17
:103B50002D23049A7642137036E021681A6808060D
:103B600003D5111D1960166805E04906F9D5111D28
:103B700019601668B6B25A4B227E03930A276F2A41
:103B80001DD108271BE0221C782145321170554AAF
:103B900019680392081D226818600E68100602D486
:103BA000500600D5B6B2D30702D520231A432260AF
:103BB0001027002E03D1202322689A432260231C61
:103BC000002243331A7002E00A27454B03936368CF
:103BD000A360002B03DB0422216891432160002EA7
:103BE00002D1049D002B0ED0049D301C391CFFF720
:103BF00093FC039B013D5B5C301C2B70391CFFF771
:103C000005FC061EF1D1082F09D12368DB0706D574
:103C100063682269934202DC3023013D2B70049BD0
:103C20005B1B23612BE009681A68080607D4490664
:103C300005D5111D19601368A28A1A8004E0111DB0
:103C40001960136862691A600023049D236116E0FD
:103C50001A68111D196015680021281C626800F09F
:103C600043F8002801D0401B6060636803E0251C16
:103C700042352A70012323610023049A1370079BA5
:103C800005980093211C069B09AAFFF7A7FE431C79
:103C900002D10120404221E02A1C2369059806999F
:103CA000079DA847431CF4D023689B0705D4099BB4
:103CB000E068984212DA181C10E00025E368099ABF
:103CC0009B1A9D42F3DA221C0123059806991932AA
:103CD000079EB047431CDCD00135EFE70BB0F0BDC9
:103CE000A4400010B5400010C9B28218904204D020
:103CF00003788B4202D00130F8E7002070470023A0
:103D000010B5934203D0CC5CC4540133F9E710BD25
:103D100010B5814208D28B18984205D29B1A013AFD
:103D200009D3995C8154FAE70023934203D0CC5C19
:103D3000C4540133F9E710BD30B500293ED0043931
:103D40000B68002B00DAC9181D4A1368141C002BDD
:103D500002D14B60116031E099420DD208680A1817
:103D60009A4203D11368C3180B6053684B602160FB
:103D700024E08A4203D8131C5A68002AF9D11D682E
:103D80005C198C420BD10968691858181960904267
:103D900014D110685268091819605A600EE08C42FC
:103DA00002D90C23036009E008680C18944203D17F
:103DB00014685268001908604A60596030BDC046F6
:103DC000AC050020032370B5CC1C9C430834051CB3
:103DD0000C2C01D20C2405E0002C03DA0C2300206B
:103DE0002B6042E08C42F9D3204A1368101C191C46
:103DF000002913D00A68121B0DD40B2A02D90A60BD
:103E00008B181FE08B4202D15A6802601BE04A689F
:103E10005A600B1C17E00B1C4968E9E7144E336825
:103E2000002B03D1281C00F04BF83060281C211C0B
:103E300000F046F8031C421CD0D00322C61C964357
:103E400086420AD11C60181C07210B301A1D8843BA
:103E5000821A0AD05142995007E0311A281C00F00A
:103E60002FF8431CBAD0331CECE770BDAC05002022
:103E7000A8050020F8B5061C0C1C151C002904D14F
:103E8000111CFFF79FFF041C18E0002A03D1FFF765
:103E900053FF2C1C12E000F025F8A8420ED2301C73
:103EA000291CFFF78FFF071E07D0211C2A1CFFF7D4
:103EB00026FF301C211CFFF73FFF3C1C201CF8BDD7
:103EC00038B50023064C051C081C2360FDF758F983
:103ED000431C03D12368002B00D02B6038BDC046A3
:103EE000400900200B1F1A68101F002A04DA8918E5
:103EF00004390B68D0180438704700005363616EB2
:103F00006E696E6700000000536F7274696E67001F
:103F100073706565640000005370656564206368B4
:103F2000616E67656420746F3A20256C6400000040
:103F3000496E76616C69642073706565642E2050EB
:103F40006C6561736520656E7465722061207661B1
:103F50006C7565206265747765656E203020616ED2
:103F6000642035303030302E00000000536F727402
:103F7000206F7574206F7220646F6E27743F0A0D76
:103F800000000000446F206E6F7468696E672E0039
:103F9000430000202020202020202020282828281E
:103FA0002820202020202020202020202020202009
:103FB0002020208810101010101010101010101059
:103FC0001010100404040404040404040410101069
:103FD0001010101041414141414101010101010115
:103FE00001010101010101010101010101011010A3
:103FF00010101010424242424242020202020202E9
:104000000202020202020202020202020202101074
:104010001010200000000000000000000000000060
:104020000000000000000000000000000000000090
:104030000000000000000000000000000000000080
:104040000000000000000000000000000000000070
:104050000000000000000000000000000000000060
:104060000000000000000000000000000000000050
:104070000000000000000000000000000000000040
:104080000000000000000000000000000000000030
:10409000000000232D302B2000686C4C0065666703
:1040A00045464700303132333435363738394142AE
:1040B0004344454600303132333435363738396180
:0840C000626364656600000004
:1040C8002C488746000000000000000000000000A7
:1040D80000000000000000000000000000000000D8
:1040E8002548874600000000000000002348874656
:1040F80023488746234887462348874623488746D8
:1041080023488746234887462348874623488746C7
:10411800000000000000000021488746214887462B
:1041280021488746214887462148874621488746AF
:10413800214887462148874600000000000000000B
:1041480000000000000000001D4887461D48874603
:104158001D4887461D4887460000000000000000F3
:104168000000000000000000000000000000000047
:10417800000000009910001099100010991000100C
:104188009910001099100010991000109910001043
:104198009910001099100010991000109910001033
:1041A800412B00107D2E001099100010991000105E
:1041B8009910001099100010991000109910001013
:1041C8009910001099100010991000109910001003
:1041D800983A000000000000000000000000000005
:1041E80000000000000000000000000000000000C7
:1041F80000000000903F00100000000000000000D8
:1042080000000000000000000000000000000000A6
:104218000000000000000000000000000000000096
:104228000000000000000000000000000000000086
:0C4238000000000024050020923F001050
:0400000510001019BE
:00000001FF
