:020000041000EA
:1010000020050020191000100000000099100010A9
:1010100000040100000000801149124A124B00F048
:1010200018F8124880471249124A134B00F011F881
:101030001249134A134B00F00CF81349134A0020CD
:10104000521A02DD043A8850FCDC114880471148EE
:1010500080479B1A03DD043BC858D050FBDC704727
:10106000B83300100C0000201C0100209D1000105F
:10107000C83400102005002020050020C8340010CE
:10108000200500202005002020050020C8080020A1
:1010900051330010A52E0010FEE7000080B500AF10
:1010A00000F004F800F01CF8BD4680BD80B500AF2C
:1010B0000A490A4B1B899BB28022520113439BB2FF
:1010C0000B810649054A4823D35A9BB2802212015C
:1010D00013439AB24823CA52BD4680BD0000054062
:1010E00080B500AF094BC0225A62094B094A1A6009
:1010F000C046074B1A688023DB051340F9D1034B28
:10110000C3225A6200F008F8BD4680BD00000140CD
:10111000000301400001F13F80B500AF124B1A6897
:10112000FF231B0213401A0A104B1A600E4B1B6858
:10113000FF221A400E4B1A600C4B1B68002B0ED07E
:101140000A4B1B681A020A4B1B68D3180948191C62
:1011500002F06CF8031C5A00074B1A6002E0064BC1
:10116000064A1A60BD4680BD0003014020050020EC
:1011700024050020000024F4FC3F00200048E80182
:1011800080B500AFBD4680BD80B500AF01F082FCE8
:1011900001F096FD032001F029FE01F033FB01F080
:1011A000FDFB01200221012200F0F8F901200321BA
:1011B000012200F0F3F900200421012200F0EEF9F1
:1011C00000200021012200F0E9F902200321002281
:1011D00000F0E4F902200221002200F0DFF90220F1
:1011E0000121002200F0DAF900200C21012200F098
:1011F000D5F900200D21012200F0D0F900200121B5
:10120000012200F0CBF900200221012200F0C6F9F2
:10121000012005210022022300F080FB012004218F
:101220000022022300F07AFB00200A21002200F0B5
:10123000B5F900200B21002200F0B0F900200721B1
:10124000012200F0ABF901F041FA01F087FA002029
:10125000002100F069F900200021002201F03EF990
:1012600000200421002201F039F9BD4680BDC046AE
:1012700080B582B000AF78607B68002B05D000207D
:101280000021012201F02AF904E0002000210022BF
:1012900001F024F9BD4602B080BDC04680B582B0E1
:1012A00000AF78607B68002B05D00020042100226D
:1012B00001F014F904E000200421012201F00EF9EC
:1012C000BD4602B080BDC04680B582B000AF786038
:1012D0007B68002B05D001200221002201F0FEF8DE
:1012E00004E001200221012201F0F8F8BD4602B01D
:1012F00080BDC04680B582B000AF78607B68002BAF
:1013000005D001200321002201F0E8F804E00120CB
:101310000321012201F0E2F8BD4602B080BDC046C3
:1013200080B582B000AF786039607B68002B05D053
:1013300000200C21002201F0D1F804E000200C2153
:10134000012201F0CBF83B68002B05D000200D21D5
:10135000012201F0C3F804E000200D21002201F079
:10136000BDF8BD4602B080BD80B582B000AF02209E
:10137000032101F091F8031C7B60052001F020FAA5
:101380000220032101F088F8031C3B600AE03B685F
:101390007B60052001F014FA0220032101F07CF8A3
:1013A000031C3B607A683B689A42F0D17B68002B53
:1013B00001D1012300E00023181CBD4602B080BD0E
:1013C00080B582B000AF0220022101F065F8031C55
:1013D0007B60052001F0F4F90220022101F05CF8A5
:1013E000031C3B600AE03B687B60052001F0E8F9E4
:1013F0000220022101F050F8031C3B607A683B6830
:101400009A42F0D17B68002B01D1012300E0002338
:10141000181CBD4602B080BD80B582B000AF02206E
:10142000012101F039F8031C7B60052001F0C8F9A7
:101430000220012101F030F8031C3B600AE03B6808
:101440007B60052001F0BCF90220012101F024F8A5
:10145000031C3B607A683B689A42F0D17B68002BA2
:1014600001D1012300E00023181CBD4602B080BD5D
:1014700080B582B000AF78607B68002B05D000207B
:101480000121012201F02AF804E0002001210022BC
:1014900001F024F8BD4602B080BDC04680B582B0E0
:1014A00000AF78607B68002B05D00020022101226C
:1014B00001F014F804E000200221002201F00EF8EF
:1014C000BD4602B080BDC04680B500AF01200521F9
:1014D00000F0E2FF031C5A425341DBB2181CBD4628
:1014E00080BDC04680B500AF0120042100F0D4FFCC
:1014F000031C5A425341DBB2181CBD4680BDC04696
:1015000080B500AF00200A2100F0C6FF031C181CA4
:10151000BD4680BD80B500AF00200B2100F0BCFFB0
:10152000031C181CBD4680BD80B582B000AF78603A
:1015300039603B68002B05D000200721012200F014
:10154000CDFF04E000200721002200F0C7FF7B68E8
:101550009BB2044AD31A9BB2181C01F0E7F8BD46AF
:1015600002B080BD50C3FFFF80B582B000AF021C47
:10157000FB1D1A70FB1D1B787F2B09D8064BFA1D2B
:101580001278111C1F220A40012191400A1C1A6086
:10159000BD4602B080BDC04600E100E090B583B01A
:1015A00000AF041C081C111CFB1D221C1A70BB1D63
:1015B000021C1A707B1D0A1C1A70FB1D1B78012B64
:1015C00000D1A1E0022B00D1EAE0002B00D09BE18A
:1015D000BB1D1B78032B1DD87B1D1B78012B0CD149
:1015E000CB4BCB4A1169BA1D1278D20007320120C9
:1015F0009040021C0A431A610CE0C54BC44A1269B0
:10160000B91D0978C900073101208840011CC94370
:101610000A401A61BB1D1B78072B23D8BB1D1B7802
:10162000032B1FD97B1D1B78012B0DD1B84BB84A5A
:101630005169BA1D1278043AD20007320120904055
:10164000021C0A435A610DE0B14BB14A5269B91DFF
:1016500009780439C900073101208840011CC943B9
:101660000A405A61BB1D1B780B2B23D8BB1D1B786E
:10167000072B1FD97B1D1B78012B0DD1A44BA44A2E
:101680009169BA1D1278083AD200073201209040C1
:10169000021C0A439A610DE09D4B9D4A9269B91D57
:1016A00009780839C900073101208840011CC94365
:1016B0000A409A61BB1D1B780F2B24D8BB1D1B78D9
:1016C0000B2B20D97B1D1B78012B0DD1904B904A01
:1016D000D169BA1D12780C3AD2000732012090402D
:1016E000021C0A43DA610EE0894B894AD269B91DAE
:1016F00009780C39C900073101208840011CC94311
:101700000A40DA6100E1FFE0BB1D1B78032B1DD806
:101710007B1D1B78012B0CD17E4B7E4A1169BA1DB3
:101720001278D200073201209040021C0A431A614D
:101730000CE0784B774A1269B91D0978C900073166
:1017400001208840011CC9430A401A61BB1D1B7857
:10175000072B24D8BB1D1B78032B20D97B1D1B789E
:10176000012B0DD16B4B6B4A5169BA1D1278043AAB
:10177000D200073201209040021C0A435A610EE059
:10178000644B644A5269B91D09780439C9000731AC
:1017900001208840011CC9430A405A61B4E0B3E00B
:1017A000BB1D1B78012B28D85B4B5B4A126EB91D01
:1017B000097801208840011CC9430A401A667B1D34
:1017C0001B78012B0CD1544B534A1169BA1D127866
:1017D000D200073201209040021C0A431A610CE03B
:1017E0004D4B4D4A1269B91D0978C90007310120D6
:1017F0008840011CC9430A401A61BB1D1B78012B9C
:101800001BD9BB1D1B78032B17D8434B424A126EC2
:10181000B91D097801208840011CC9430A401A6695
:101820003D4B3D4A1269B91D0978C90007310120B5
:101830008840011CC9430A401A61BB1D1B78072B55
:101840001CD8BB1D1B78032B18D9334B324A126EA0
:10185000B91D097801208840011CC9430A401A6655
:101860002D4B2D4A5269B91D09780439C900073139
:1018700001208840011CC9430A405A61BB1D1B78E6
:10188000092B11D8BB1D1B78072B0DD9224B224ADF
:101890009269B91D09780839C900073101208840CB
:1018A000011CC9430A409A61BB1D1B78092B2AD928
:1018B000194B194A126EB91D097801208840011C84
:1018C000C9430A401A667B1D1B78012B0DD1124BB0
:1018D000114A9169BA1D1278083AD20007320120E4
:1018E0009040021C0A439A610DE00B4B0A4A926930
:1018F000B91D09780839C900073101208840011C49
:10190000C9430A409A61C046BD4603B090BDC04677
:10191000000004400001044000020440B0B582B061
:1019200000AF051C0C1C101C191CFB1D2A1C1A7076
:10193000BB1D221C1A707B1D021C1A703B1D0A1C49
:101940001A70FB1D1B78012B00D1CFE1022B00D1B7
:10195000ABE2002B01D000F098FDBB1D1B78032BE0
:1019600065D87B1D1B78012B19D1DF4BDE4A11692D
:10197000BA1D1278D200073201209040021C0A439F
:101980001A61D94BD84A1269B91D0978C9000331C7
:101990000F208840011CC9430A401A6147E0D24B1E
:1019A000D14A1269B91D0978C90007310120884060
:1019B000011CC9430A401A613B1D1B78012B19D138
:1019C000C94BC94A1269B91D0978C90003311F20E2
:1019D0008840011CC9430A401A61C34BC24A1169BD
:1019E000BA1D1278D200043201209040021C0A4332
:1019F0001A611CE03B1D1B78022B18D1BA4BBA4A66
:101A00001269B91D0978C90003311F208840011CE3
:101A1000C9430A401A61B44BB34A1169BA1D12781E
:101A2000D200033201209040021C0A431A61BB1D00
:101A30001B78072B6ED8BB1D1B78032B6AD97B1D27
:101A40001B78012B1BD1A84BA74A5169BA1D1278EC
:101A5000043AD200073201209040021C0A435A6126
:101A6000A14BA14A5269B91D09780439C900033153
:101A70000F208840011CC9430A405A614AE09A4B32
:101A8000994A5269B91D09780439C9000731012002
:101A90008840011CC9430A405A613B1D1B78012B39
:101AA0001BD1914B904A5269B91D09780439C9007C
:101AB00003311F208840011CC9430A405A618A4BE8
:101AC000894A5169BA1D1278043AD20004320120C1
:101AD0009040021C0A435A611CE03B1D1B78022BFC
:101AE00018D1814B804A5269B91D0978C900033168
:101AF0001F208840011CC9430A405A617A4B7A4A28
:101B00005169BA1D1278D200033201209040021CA4
:101B10000A435A61BB1D1B780B2B6ED8BB1D1B786B
:101B2000072B6AD97B1D1B78012B1BD16E4B6E4A8C
:101B30009169BA1D1278083AD2000732012090400C
:101B4000021C0A439A61684B674A9269B91D097879
:101B50000839C90003310F208840011CC9430A40DD
:101B60009A614AE0604B604A9269B91D0978083968
:101B7000C900073101208840011CC9430A409A610D
:101B80003B1D1B78012B1BD1574B574A9269B91D3E
:101B900009780839C90003311F208840011CC94356
:101BA0000A409A61504B504A9169BA1D1278083A1E
:101BB000D200043201209040021C0A439A611CE0CA
:101BC0003B1D1B78022B18D1474B474A9269B91D20
:101BD0000978C90003311F208840011CC9430A400D
:101BE0009A61414B404A9169BA1D1278D200033282
:101BF00001209040021C0A439A61BB1D1B780F2BE9
:101C000070D8BB1D1B780B2B6CD97B1D1B78012B4F
:101C10001BD1354B344AD169BA1D12780C3AD20027
:101C2000073201209040021C0A43DA612E4B2E4AF3
:101C3000D269B91D09780C39C90003310F208840D9
:101C4000011CC9430A40DA614CE0274B264AD2699D
:101C5000B91D09780C39C900073101208840011CE1
:101C6000C9430A40DA613B1D1B78012B1BD11E4B77
:101C70001D4AD269B91D09780C39C90003311F20EA
:101C80008840011CC9430A40DA61174B164AD169E2
:101C9000BA1D12780C3AD200043201209040021C86
:101CA0000A43DA611EE03B1D1B78022B1AD10E4B52
:101CB0000D4AD269B91D0978C90003311F20884037
:101CC000011CC9430A40DA61074B074AD169BA1DB2
:101CD0001278D200033201209040021C0A43DA61DC
:101CE00000F0D3FB00F0D1FB00000440BB1D1B78CB
:101CF000032B65D87B1D1B78012B19D1D84BD84AF3
:101D00001169BA1D1278D200073201209040021CDE
:101D10000A431A61D24BD24A1269B91D0978C90027
:101D200003310F208840011CC9430A401A6147E073
:101D3000CB4BCB4A1269B91D0978C9000731012084
:101D40008840011CC9430A401A613B1D1B78012BC6
:101D500019D1C34BC24A1269B91D0978C9000331B0
:101D60001F208840011CC9430A401A61BC4BBC4A71
:101D70001169BA1D1278D200043201209040021C71
:101D80000A431A611CE03B1D1B78022B18D1B44B8F
:101D9000B34A1269B91D0978C90003311F20884070
:101DA000011CC9430A401A61AD4BAD4A1169BA1D05
:101DB0001278D200033201209040021C0A431A61BB
:101DC000BB1D1B78072B6FD8BB1D1B78032B6BD952
:101DD0007B1D1B78012B1BD1A14BA14A5169BA1D58
:101DE0001278043AD200073201209040021C0A43C4
:101DF0005A619B4B9A4A5269B91D09780439C90046
:101E000003310F208840011CC9430A405A614BE04E
:101E1000934B934A5269B91D09780439C9000731B7
:101E200001208840011CC9430A405A613B1D1B78B0
:101E3000012B1BD18A4B8A4A5269B91D0978043992
:101E4000C90003311F208840011CC9430A405A6160
:101E5000834B834A5169BA1D1278043AD200043286
:101E600001209040021C0A435A611DE03B1D1B7873
:101E7000022B19D17A4B7A4A5269B91D0978C900E7
:101E800003311F208840011CC9430A405A61744B2A
:101E9000734A5169BA1D1278D20003320120904072
:101EA000021C0A435A61F0E2EFE2BB1D1B78002BD3
:101EB0004CD17B1D1B78012B12D16A4B694A126EE3
:101EC00001218A431A66674B664A1269FF218A43D9
:101ED0001A61644B634A126980210A431A6135E032
:101EE0007B1D1B78002B31D15E4B5E4A126E0121A7
:101EF0008A431A663B1D1B78012B0CD1594B594A5A
:101F00001269FF218A431A61564B564A1269102101
:101F10000A431A611AE03B1D1B78022B0CD1514B6E
:101F2000504A1269FF218A431A614E4B4D4A126989
:101F300008210A431A6109E03B1D1B78032B05D1D8
:101F4000484B484A126E01210A431A66BB1D1B7892
:101F5000012B4FD17B1D1B78012B13D1414B414AE3
:101F6000126E02218A431A663E4B3E4A12693E496E
:101F70000A401A613B4B3B4A1269802109020A431D
:101F80001A6137E07B1D1B78002B33D1354B354A66
:101F9000126E02218A431A663B1D1B78012B0DD15C
:101FA000304B304A126930490A401A612D4B2D4A94
:101FB0001269802149010A431A611BE03B1D1B780D
:101FC000022B0DD1274B274A126927490A401A6173
:101FD000244B244A1269802109010A431A6109E04D
:101FE0003B1D1B78032B05D11E4B1E4A126E02218E
:101FF0000A431A66BB1D1B78022B43D17B1D1B783D
:10200000012B3FD07B1D1B78002B3BD1154B154A74
:10201000126E04218A431A663B1D1B78012B0DD1D9
:10202000104B104A126911490A401A610D4B0D4AB2
:102030001269802149030A431A6123E03B1D1B7882
:10204000022B15D1074B074A126908490A401A6149
:10205000044B044A1269802109030A431A6111E002
:102060000001044000020440FF00FFFFFFFF00FFEB
:102070003B1D1B78032B05D1CD4BCD4A126E04219D
:102080000A431A66BB1D1B78032B3BD17B1D1B78B3
:10209000012B37D07B1D1B78002B33D1C44BC44A96
:1020A000126E08218A431A663B1D1B78012B0DD145
:1020B000BF4BBF4A12691202120A1A61BC4BBC4ADA
:1020C0001269802149050A431A611BE03B1D1B78F8
:1020D000022B0DD1B64BB64A12691202120A1A61CE
:1020E000B34BB34A1269802109050A431A6109E01A
:1020F0003B1D1B78032B05D1AD4BAD4A126E082159
:102100000A431A66BB1D1B78032B60D9BB1D1B78C5
:10211000072B5CD87B1D1B78012B58D07B1D1B78AF
:10212000002B54D1A24BA24A126EB91D097801208E
:102130008840011CC9430A401A663B1D1B78012BCD
:1021400019D19B4B9A4A5269B91D09780439C900C3
:10215000FF208840011CC9430A405A61944B944AAD
:102160005269B91D09780439C90010208840011C42
:102170000A435A612BE03B1D1B78022B19D18C4B73
:102180008B4A5269B91D09780439C900FF2088407B
:10219000011CC9430A405A61854B854A5269B91DE1
:1021A00009780439C90008208840011C0A435A6193
:1021B0000DE03B1D1B78032B09D17D4B7C4A116E32
:1021C000BA1D127801209040021C0A431A66BB1DFA
:1021D0001B78082B4DD17B1D1B78012B12D1744B22
:1021E000734A126E73490A401A66714B704A9269BB
:1021F000FF218A439A616E4B6D4A926980210A439E
:102200009A6136E07B1D1B78002B32D1684B684AFF
:10221000126E68490A401A663B1D1B78012B0CD1CF
:10222000634B634A9269FF218A439A61604B604A1B
:10223000926910210A439A611BE03B1D1B78022B17
:102240000CD15B4B5A4A9269FF218A439A61584BE1
:10225000574A926908210A439A610AE03B1D1B789C
:10226000032B06D1524B524A126E802149000A4379
:102270001A66BB1D1B78092B50D17B1D1B78012BC7
:1022800013D14B4B4A4A126E4B490A401A66484BCF
:10229000474A926949490A409A61454B444A9269C2
:1022A000802109020A439A6138E07B1D1B78002BCC
:1022B00034D13F4B3E4A126E3F490A401A663B1DDD
:1022C0001B78012B0DD13A4B394A92693B490A40A0
:1022D0009A61374B364A9269802149010A439A61D3
:1022E0001CE03B1D1B78022B0DD1314B304A92690B
:1022F00032490A409A612E4B2D4A92698021090188
:102300000A439A610AE03B1D1B78032B06D1284B38
:10231000274A126E802189000A431A66BB1D1B786A
:102320000A2B5CD17B1D1B78012B13D1204B204A3B
:10233000126E23490A401A661D4B1D4A92692149B3
:102340000A409A611A4B1A4A9269802109040A4389
:102350009A6144E07B1D1B78002B40D1144B144A3A
:10236000126E17490A401A663B1D1B78012B0DD1CE
:102370000F4B0F4A926913490A409A610C4B0C4A61
:102380009269802149030A439A6128E03B1D1B782A
:10239000022B19D1064B064A92690A490A409A61F2
:1023A000034B034A9269802109030A439A6116E0AC
:1023B00000020440FFFEFFFFFFFDFFFFFF00FFFFE5
:1023C000FFFBFFFFFFFF00FF3B1D1B78032B06D128
:1023D0002F4B2F4A126E8021C9000A431A66BB1D7B
:1023E0001B780B2B50D17B1D1B78012B13D1284B55
:1023F000274A126E27490A401A66254B244A9269D9
:102400001202120A9A61224B214A9269802109061E
:102410000A439A6138E07B1D1B78002B34D11C4B9A
:102420001B4A126E1B490A401A663B1D1B78012B82
:102430000DD1174B164A92691202120A9A61144B77
:10244000134A9269802149050A439A611CE03B1DA9
:102450001B78022B0DD10E4B0D4A92691202120A03
:102460009A610B4B0A4A9269802109050A439A61D5
:102470000AE03B1D1B78032B06D1054B044A126E64
:10248000802109010A431A66C046BD4602B0B0BDAC
:1024900000020440FFF7FFFF90B585B000AF021CBB
:1024A000FB1D1A70BB1D0A1C1A700E23FC18FB1DA5
:1024B0001B78181C00F0A0F8031C23800E23FB18C7
:1024C0001A88BB1D1B781A41131CDBB20122134072
:1024D000DBB2181CBD4605B090BDC04690B583B0B8
:1024E00000AF041C081C111CFB1D221C1A70BB1D14
:1024F000021C1A707B1D0A1C1A707B1D7A1D127833
:1025000001210A401A70FB1D1B78012B35D0022BCC
:102510004ED0002B67D17B1D1B78012B16D1334B7E
:10252000324A5268B91D0978103101208840011CD7
:10253000C9430A405A602D4B2C4A5168BA1D127883
:1025400001209040021C0A435A604CE0274B274A66
:102550005268B91D097801208840011CC9430A400E
:102560005A60224B214A5168BA1D1278103201205C
:102570009040021C0A435A6035E07B1D1B78012BFA
:102580000AD11B4B1A4A1168BA1D127801209040DB
:10259000021C0A431A6026E0154B154A1268B91D41
:1025A000097801208840011CC9430A401A601AE0DA
:1025B0007B1D1B78012B0AD10E4B0E4A1168BA1DE8
:1025C000127801209040021C0A431A600AE0094B6D
:1025D000084A1268B91D097801208840011CC943C6
:1025E0000A401A60C046BD4603B090BD00000440DA
:1025F000000104400002044080B584B000AF021C1A
:10260000FB1D1A70FB1D1B78012B0CD0022B13D065
:10261000002B1AD10F4B5A6A0E23FB181A800E2377
:10262000FB181B8812E00C4B5A6A0E23FB181A8009
:102630000E23FB181B8809E0084B5A6A0E23FB186F
:102640001A800E23FB181B8800E00023181CBD46CF
:1026500004B080BD000004400001044000020440BA
:1026600080B500AF154BC0225A62154B154A1A604F
:10267000C046134B1A688023DB051340F9D10F4B7A
:10268000C3225A620D4BC0225A620D4B0C4A12698A
:1026900004210A431A61C046094B1A688023DB05EE
:1026A0001340F9D1054BC3225A62054B044AD26844
:1026B00005490A43DA60BD4680BDC04600000140BE
:1026C000000301400001F13FFF0F000080B500AFA3
:1026D000FFF7C6FF0F4B01221A630F4B1022FF3288
:1026E000DA600E4B04225A610C4B01225A620B4BEA
:1026F0000B4A5A63094B0B4ADA63074B01221A61F2
:10270000094B094A5269A02109040A435A61BD468E
:1027100080BDC0460000014000000448000104489C
:1027200050C30000A86100000000044080B582B0E2
:1027300000AF021CBB1D1A80064BBA1D1288DA635B
:10274000054B054A126901210A431A61BD4602B0D0
:1027500080BDC046000104480000044880B500AFB9
:10276000024B0122DA60BD4680BDC046000104482C
:1027700080B584B000AF021CFB1D1A7018E00E2358
:10278000FB186D221A8008E00E23FB181B889BB2F1
:10279000013B9AB20E23FB181A800E23FB181B88EC
:1027A0009BB2002BF0D1FB1DFA1D1278013A1A7072
:1027B000FB1D1B78002BE2D1BD4604B080BDC04696
:1027C00080B584B000AF021CBB1D1A800E23FB181D
:1027D00000221A800BE00A20FFF7CAFF0E23FB1825
:1027E0001B889BB201339AB20E23FB181A800E236A
:1027F000FB181B889BB2BA1D12889A42EBD8BD46C3
:1028000004B080BD80B500AF594BC0225A62594B0D
:10281000584A126908210A431A61C046554B1A6882
:102820008023DB051340F9D1514BC3225A62524B2E
:10283000514AD26803210A43DA604F4B4E4A12696B
:10284000802109020A431A614B4B4B4A12697621D7
:102850000A431A61484B484A5269B82149030A435E
:102860005A61454B444A5269F02189010A435A6131
:10287000414B414A52695A613F4B3F4A526B0221D8
:102880000A435A633C4B3C4A526B3C490A40802104
:1028900049000A435A63384B374A526B38490A4059
:1028A000E021C9020A435A63334B334A526B35491C
:1028B0000A40E021C9040A435A632F4B2E4A926B07
:1028C00031490A408021C9000A439A632A4B2A4AA7
:1028D000926B802149000A439A63274B264AD26BA8
:1028E00001210A43DA63244B234AD26B02218A4333
:1028F000DA63214B204AD26B24490A409021090116
:102900000A43DA631C4B1C4A926C802189010A43FA
:102910009A641949184A84235B00D3581C4A1A4008
:1029200084235B00CA50144B134A126C02210A43E1
:102930001A641149104A84235B00D358154A134086
:10294000C022D2041A4384235B00CA500A4B0022DF
:10295000DA61114B104A1269B82109040A431A615D
:102960000D4B0D4A12691202120A1A61BD4680BD52
:10297000000001400003014000020048FFFCFFFF8F
:10298000FFFFC0FFFFFFFFF0FFF3FFFFFFE0FFFFD0
:10299000FFC0FFFFC0FFFFF80001044080B500AF9B
:1029A0000C4B0C4A126C8021C9010A431A64094B72
:1029B000084A926908490A409A61064B054AD26C56
:1029C0008021C9000A43DA640920FEF7CDFDBD4627
:1029D00080BDC04600020048FFF8FFFF80B582B00E
:1029E00000AF021CFB1D1A700849FB1D1A78C0239A
:1029F0005B00CA50C046054A8A235B00D258802338
:102A00001B011340F7D0BD4602B080BD0002004854
:102A100080B582B000AF786006E07B685A1C7A60AF
:102A20001B78181CFFF7DAFF7B681B78002BF4D1AA
:102A3000BD4602B080BDC04680B582B000AF114B2C
:102A40005A6DFB1D1A70FB1D1B780D2B09D10E4B07
:102A50001B781A1C0D4B002199540D4B01221A7042
:102A600006E0094B1B78191C084BFA1D12785A54C2
:102A7000054B1B780133DAB2034B1A70C046BD46D2
:102A800002B080BD00020048280500203806002062
:102A90002905002080B500AF7F4BC0225A627F4BD2
:102AA0007E4A126908210A431A61C0467B4B1A68A4
:102AB0008023DB051340F9D1774BC3225A62902360
:102AC000DB059022D205D26803210A43DA60902305
:102AD000DB059022D2051269802109020A431A619E
:102AE0009023DB059022D205126976210A431A61F0
:102AF0009023DB059022D2055269B82149030A438D
:102B00005A619023DB059022D2055269F021890198
:102B10000A435A619023DB059022D20552695A611B
:102B20009023DB059022D205526B02210A435A639F
:102B30009023DB059022D205526B59490A4080212F
:102B400049000A435A639023DB059022D205526B59
:102B500054490A40E021C9020A435A639023DB0525
:102B60009022D205526B50490A40E021C9040A4321
:102B70005A639023DB059022D205926B4B490A40A1
:102B80008021C9000A439A639023DB059022D20575
:102B9000926B802149000A439A639023DB059022BF
:102BA000D205D26B01210A43DA639023DB05902220
:102BB000D205D26B02218A43DA639023DB0590228F
:102BC000D205D26B3A490A40902109010A43DA63DF
:102BD0009023DB059022D205926C802189010A4363
:102BE0009A649023DA059023D90584235B00CB589F
:102BF0003049194084235B00D1509023DB0590229B
:102C0000D205126C02210A431A649023DA0590233C
:102C1000D90584235B00CB5827490B40C021C90448
:102C2000194384235B00D150012001210022FEF7CB
:102C3000B5FC9023DB059022D205D26907218A4397
:102C4000DA619023DB059022D205D26903210A4381
:102C5000DA611A4B194A1269F8218A431A61174B33
:102C6000164A1269B8210A431A6100200C21012278
:102C7000FEF794FC00200C210122FFF72FFC00201E
:102C80000D210122FEF78AFC00200D210122FFF711
:102C900025FCBD4680BDC046000001400003014048
:102CA000FFFCFFFFFFFFC0FFFFFFFFF0FFF3FFFF91
:102CB000FFE0FFFFFFC0FFFFC0FFFFF8000104407F
:102CC00080B500AF9023DB059022D205126C8021E5
:102CD000C9010A431A649023DB059022D205926948
:102CE0000C490A409A619023DB059022D205926933
:102CF000802149000A439A619023DB059022D20586
:102D0000D26C8021C9000A43DA640A20FEF72CFC49
:102D1000BD4680BDFFF8FFFF80B582B000AF021C4A
:102D2000FB1D1A709023DA05FB1D1978C0235B0088
:102D3000D150C0469023DA058A235B00D258802305
:102D40001B011340F6D0BD4602B080BD80B582B0F5
:102D500000AF786006E07B685A1C7A601B78181C0C
:102D6000FFF7DAFF7B681B78002BF4D1BD4602B079
:102D700080BDC04680B582B000AF9023DB055A6DA0
:102D8000FB1D1A70FB1D1B780D2B09D10D4B1B78F9
:102D90001A1C0D4B002199540C4B01221A7006E0AD
:102DA000084B1B78191C084BFA1D12785A54054B16
:102DB0001B780133DAB2034B1A70C046BD4602B02D
:102DC00080BDC0462A050020380500202B050020C4
:102DD00080B500AF034B00221A70034B00221A701B
:102DE000BD4680BD380500202A05002080B582B090
:102DF00000AF021CFB1D1A70C0469023DA058A231F
:102E00005B00D25880231B011340F6D0FB1D1B78BA
:102E1000012B13D002DC002B05D030E0022B18D0A0
:102E2000032B21D02BE000200C210122FFF756FBC1
:102E300000200D210122FFF751FB20E000200C2192
:102E40000022FFF74BFB00200D210122FFF746FB7C
:102E500015E000200C210122FFF740FB00200D218E
:102E60000022FFF73BFB0AE000200C210022FFF7C5
:102E700035FB00200D210022FFF730FBC046BD4688
:102E800002B080BD80B500AFBFF34F8F034B044A43
:102E9000DA60BFF34F8FC046FDE7C04600ED00E0AB
:102EA0000400FA0580B500AFFEF76EF90020FEF7CA
:102EB000F5F901200021FEF733FA00200021FEF78A
:102EC00033FB002000F014F90120FEF7D1F9FEF7E2
:102ED00077FA031E05D1244B1B68002B01D100F0AB
:102EE0004BF8FEF741FA031E09D1204B1B68002B5B
:102EF00005DD1F4B1B68002B01D100F0A7F8FEF782
:102F00005FFA031E012B02D1174B00221A60FEF755
:102F10002BFA031E012B02D1154B00221A60FEF77B
:102F2000D3FA031E012B0DD1124B181C0121FEF701
:102F3000FBFAC046FEF7E4FA031EFBD00020002196
:102F4000FEF7F2FAFEF7CEFA031E012B07D1C046B8
:102F5000FEF7C8FA031E012BFAD0FFF793FF0120FA
:102F60000021FEF7DDF9AFE7300500202C05002039
:102F70003405002050C3000080B500AF2C4B012267
:102F80001A6000200021FEF7CBF90120FEF786F938
:102F90000020FEF76DF90120FEF76AFA254B181C98
:102FA000FFF7D4FE0CE0FEF79DFA031E012B07D1BC
:102FB000C046FEF797FA031E012BFAD0FFF762FF17
:102FC0001D4B1B78002BEED01B4B00221A701B4BA5
:102FD000181CFFF71DFD0020FEF74AFA174B1B785F
:102FE0006E2B04D1164B181CFFF712FD12E0154B87
:102FF0001B68632B0EDC134B1B68591C114A1160B4
:103000000E4A1278643A511E8A41D2B2111C0E4AFD
:103010009B009950FFF7DCFE0120FEF729F9002004
:10302000FEF73CF901200021FEF77AF9BD4680BD8C
:10303000300500209C3300102B05002038050020AF
:10304000AC3300102C0500203807002080B582B07A
:1030500000AF234B01221A6000200021FEF760F927
:10306000204B1B68012B17D11F4B181C0021FEF7AA
:103070005BFAC046FEF74EFA031EFBD01A4B181C33
:103080000121FEF751FAC046FEF73AFA031EFBD0C3
:1030900000200021FEF748FA01237B600BE07B68EB
:1030A0005A1E104B79688900C9580E4B9200D150B6
:1030B0007B6801337B600D4B1B687A689A42EEDBBC
:1030C0000A4B1B68002B04DD084B1B685A1E074B7C
:1030D0001A6001200021FEF723F9BD4602B080BD31
:1030E000340500203807002050C300002C050020C4
:1030F00080B582B000AF78607B68002B10D10020D3
:10310000FEF7B6F80020FEF7C9F80020FEF7DCF85D
:103110000020FEF7EFF800200021FEF701F97FE024
:103120000120FEF7A5F80120FEF7B8F80120FEF710
:10313000CBF80120FEF7DEF83B4B181CFFF740FBF5
:103140000020FEF7ABF80020FEF7BEF80020FEF7E7
:10315000D1F8FA23DB00181CFFF732FBFEF704F965
:10316000031E03D00120FEF7C5F802E00120FEF7A0
:10317000ABF8FA239B00181CFFF722FB0020FEF798
:10318000A3F80020FEF7B6F8FA235B00181CFFF73F
:1031900017FBFEF715F9031E03D00120FEF7AAF86E
:1031A00002E00120FEF790F8FA239B00181CFFF7BD
:1031B00007FB0020FEF788F80020FEF79BF8FA23B3
:1031C0005B00181CFFF7FCFAFEF726F9031E03D07C
:1031D0000120FEF78FF802E00120FEF775F8FA23D0
:1031E0009B00181CFFF7ECFA0020FEF76DF800209A
:1031F000FEF780F80120FEF73BF9FA239B00181C2C
:10320000FFF7DEFA0020FEF733F90120FEF746F95A
:10321000FA239B00181CFFF7D3FA0020FEF73EF9B3
:10322000BD4602B080BDC04688130000002243089E
:103230008B4274D303098B425FD3030A8B4244D37E
:10324000030B8B4228D3030C8B420DD3FF220902C0
:1032500012BA030C8B4202D31212090265D0030B7F
:103260008B4219D300E0090AC30B8B4201D3CB0375
:10327000C01A5241830B8B4201D38B03C01A5241B7
:10328000430B8B4201D34B03C01A5241030B8B42B9
:1032900001D30B03C01A5241C30A8B4201D3CB02A4
:1032A000C01A5241830A8B4201D38B02C01A524189
:1032B000430A8B4201D34B02C01A5241030A8B428C
:1032C00001D30B02C01A5241CDD2C3098B4201D3A4
:1032D000CB01C01A524183098B4201D38B01C01A22
:1032E000524143098B4201D34B01C01A5241030999
:1032F0008B4201D30B01C01A5241C3088B4201D348
:10330000CB00C01A524183088B4201D38B00C01AF4
:10331000524143088B4201D34B00C01A5241411A1B
:1033200000D20146524110467047FFE701B5002028
:1033300000F00CF802BDC0460029F7D003B5FFF736
:1033400075FF0EBC4243891A1847C0467047C046F5
:103350000E4B70B500251E1C0D4CE41AA410A5429E
:1033600004D0AB00F35898470135F8E7FDF708FFA4
:10337000084B00251E1C084CE41AA410A54204D0DA
:10338000AB00F35898470135F8E770BD20050020E1
:10339000200500202005002020050020476F6F64D5
:1033A000206F72206261643F0A0D0000446F206E3E
:0833B0006F7468696E672E005E
:1033B8002C488746000000000000000000000000C4
:1033C80000000000000000000000000000000000F5
:1033D8002548874600000000000000002348874673
:1033E80023488746234887462348874623488746F5
:1033F80023488746234887462348874623488746E5
:103408000000000000000000214887462148874648
:1034180021488746214887462148874621488746CC
:103428002148874621488746000000000000000028
:1034380000000000000000001D4887461D48874620
:103448001D4887461D488746000000000000000010
:103458000000000000000000000000000000000064
:103468000000000099100010991000109910001029
:103478009910001099100010991000109910001060
:103488009910001099100010991000109910001050
:10349800392A0010752D001099100010991000108D
:1034A8009910001099100010991000109910001030
:1034B8009910001099100010991000109910001020
:0400000510001019BE
:00000001FF
